:1000000009C019C018C017C016C015C014C013C04D
:1000100012C011C011241FBECFE9CDBF10E0A0E671
:10002000B0E0E8E2F2E002C005900D92A436B1071C
:10003000D9F78AD0F7C0E4CF611571058105910524
:1000400009F40895E9EFF0E03197F1F700C00000FE
:100050006150710981099109EFCF87B986E886B9A6
:100060000895369A349BFECF84B125B190E0922B4F
:1000700064E570E08ED08BEF860F0895CF92DF920B
:10008000EF92FF92CF93DF93C82E682F70E084E643
:1000900090E093D0C62FD0E0D12CE12CF12CDC17CE
:1000A00038F0DF91CF91FF90EF90DF90CF900895DF
:1000B000C701B601C1DFC49AC701B601BDDFC4984C
:1000C000DF5FEDCF0F931F93482F809160009091D9
:1000D0006100A0916200B09163008C019D015DE020
:1000E000000F111F221F331F5A95D1F70827192718
:1000F0002A273B27D901C80161E1B695A7959795B5
:1001000087956A95D1F7082719272A273B27C90120
:10011000B801E5E0660F771F881F991FEA95D1F7B0
:100120006027712782279327609360007093610096
:100130008093620090936300242F30E040E050E011
:100140004FD01F910F91089587E187BB88E0BADFF8
:10015000C62F862F90E001966AEF70E009D0BC01AF
:10016000990F880B990B68DF81E08C0F87DFEECF4A
:100170000024552704C0080E591F880F991F0097A7
:1001800029F076956795B8F37105B9F7802D952F0D
:100190000895AA1BBB1B51E107C0AA1FBB1FA617CE
:1001A000B70710F0A61BB70B881F991F5A95A9F720
:1001B00080959095BC01CD01089597FB072E16F40C
:1001C000009406D077FD08D0E4DF07FC05D03EF4AC
:1001D000909581959F4F0895709561957F4F0895F3
:1001E000A1E21A2EAA1BBB1BFD010DC0AA1FBB1F3B
:1001F000EE1FFF1FA217B307E407F50720F0A21BAD
:10020000B30BE40BF50B661F771F881F991F1A9419
:1002100069F760957095809590959B01AC01BD0143
:08022000CF010895F894FFCF0F
:04022800A1B0B912B6
:00000001FF
