:100000001FC0000000000CC0000000000000000045
:1000100000000000000000000000000000000000E0
:100020000F93E09A1DB2F8980EB303950EBB0F9193
:100030001895000000000000000000000000000013
:1000400000E801BB00E40FBD0DE00EBD00E109BFFB
:1000500000E00EBBF898E09A1DB203950EBB00E0DD
:100060000BBD0AEF202E2ABC789400E812B30127BA
:1000700002BB012D0F3F21F303D0F7CF000000009A
:0C0080000F93012D0A95F1F70F910895E0
:00000001FF
