:1000000017C00000000004C0000000000000000055
:100010001590EF93FF93EC2FFD2F2590CE2FDF2F20
:10002000FF91EF9126BE189500000000000000002F
:1000300000E107BB02E40FBD05E003BF04E009BF18
:10004000EAE7F0E01590EF93FF93E5E9F0E0259003
:10005000CE2FDF2FFF91EF9126BE789400E118B3E9
:10006000012708BB012D0F3F19F301D0F7CF0F93E4
:10007000012D0A95F1F70F910895926D4E6D594833
:100080004E59656D59926D654E4E4E4E48484E59CB
:1000900059656D65FF19141414280A0A0A0A141404
:1000A0001914282828141428141414141414500093
:00000001FF
