:1000000012C019C018C017C016C015C014C013C044
:1000100012C011C010C01CC00EC00DC00CC00BC05F
:100020000AC009C008C011241FBECFE5D4E0DEBF5E
:10003000CDBF1DD025C0E4CF8DE489B910BC86E8C2
:1000400080BD88E98AB985B78F7885BF789408958F
:100050001F920F920FB60F9211248F938CB18F5F66
:100060008CB98F910F900FBE0F901F901895E4DF01
:1000700085B7806885BF889585B78F7785BFF8CFAE
:04008000F894FFCF22
:00000001FF
