:100000000FE107BBE0E0F1E0C895EF93FF27E02D9B
:10001000E03810F0EF91F4CFB0978894EE1FFF1FF7
:1000200010E3E10F11E0F11F1AD003D0EF91E39537
:10003000EBCF550F660F5F7E6F7E28D034E0052F23
:10004000172F13D0502F712F062F182F0ED0602F7F
:10005000812F3F931BD03F913A9589F70895C8951A
:10006000702D3196C895802D08952F9320E8212377
:1000700011F4077F01C00860000F110F20E1212358
:1000800011F40E7F01C001602F91089526EE40E02B
:100090003BE04395413009F4052F423009F4062F27
:1000A000433091F0001F18F010E018BB01C038BBBE
:1000B000383011F430E106C03C3011F437E1E9CFBB
:1000C000303111F03A95EECF2A9509F708950000E6
:1000D0000000000000000000000000000000000020
:1000E0000000000000000000000000000000000010
:1000F0000000000000000000000000000000000000
:100100002031333A30302054454932204B6C6175F0
:1001100073757221C2B200000000000000000000F0
:1001200000000000000000000000000000000000CF
:1001300000002202AA00AFAF363692498DAD2400EE
:10014000244242240660272000240700000424489B
:10015000699626224246C6248AF2642424666222D4
:1001600066666624040420246C6070706360630219
:100170007B864AEA6DAC6886CAAC6C8CE8C868B607
:100180009F99444422A4ACA9888EFB999DB94AA4A6
:10019000CAC84AA7CACB342CE444AAAEAA4499D60A
:1001A0009669AA62F24F6446422262262500000F39
:1001B000440062EF8EAC0E8E26A6CE8624E4331663
:1001C00088EA202220268ACE444206D90EAA04A418
:1001D0000CC80CC4048806484E420AAE0AA405D6D0
:1001E0000A4A0A4C0C4664C6222262365A0004AE01
:00000001FF
