:100000000FE007BB00E008BBD0E0C0E09AD086D08C
:10001000032DC298083C20F0BCE0ADEC5AD012C0D1
:10002000063920F0B0E8A0E054D00CC0043608F047
:1000300009C0023320F0B0E8A0E023D003C0BCE048
:10004000ADEC1FD039E02C2F3A9511F011D0FCCF38
:1000500039E02D2F3A9511F00BD0FCCFC29A05D084
:10006000D5CFC19A0000C19808951197F1F708956E
:10007000022F017011F0C09A01C0C098F2DF2795DD
:10008000089501E0C00F0FB70F930FE00C230A3063
:1000900009F002C006E0C00F00EF0C23003A09F09F
:1000A00005C000E6C00F0F910FB70F930F910FBF60
:1000B00000E0D01F0FE00D230A3009F002C006E077
:1000C000D00F00EF0D23003A09F002C000E6D00F78
:1000D000089501E0C01B0FB70F930FE00C230F3002
:1000E00009F002C006E0C01B00EF0C23003F09F03E
:1000F00002C000E6C01B0F910FBF00E0D00B0FE065
:100100000D230F3009F002C006E0D01B00EF0D23D5
:10011000003F09F002C000E6D01B08950F934F92F4
:1001200002E007B900ED06B9349BFECF34B045B00C
:100130008894479437948894479437944F900F91BC
:1001400008950F93C03069F4D03059F4F8E0E0E03E
:1001500008E016B3102718BB0E2F0A95F1F7319758
:06016000B9F70F910895AC
:00000001FF
