:1000000012C021C020C01FC01EC01DC01CC01BC00C
:100010001AC019C018C017C016C015C014C013C02C
:1000200012C011C010C011241FBECFE5D4E0DEBF46
:10003000CDBF10E0A0E6B0E001C01D92A136B1072F
:10004000E1F73DD06EC0DCCF07C0E7EBFBE03197B6
:10005000F1F700C0000001970097B9F70895FC017F
:10006000408121E030E002C0220F331F6A95E2F7A1
:100070006091600070E050E04223532364177507DD
:1000800061F0EFE5FAEE3197F1F700C00000FC01F6
:100090008081822380936000089580E0089587B96D
:1000A00086E886B90895369A349BFECF24B135B1DF
:1000B000932F80E0AC01422B9A01C901089587E09B
:1000C00087BB8FE184BB80E881BB85E087B986E888
:1000D00086B9E9DFC1E0D1E010E806E062E080E344
:1000E00090E0BDDF8111CD27DEDF8857910925E043
:1000F000969587952A95E1F785BBC13041F4809F9D
:10010000C0011124A1DFC8BB8EE190E006C0869536
:1001100090E09ADF12BB82E090E096DF12BA18BA44
:06012000DDCFF894FFCFD3
:00000001FF
